{
  "contractName": "HospitalContract",
  "abi": [
    {
      "inputs": [
        {
          "internalType": "uint256",
          "name": "",
          "type": "uint256"
        }
      ],
      "name": "contracts",
      "outputs": [
        {
          "internalType": "string",
          "name": "hospitalName",
          "type": "string"
        },
        {
          "internalType": "string",
          "name": "services",
          "type": "string"
        },
        {
          "internalType": "uint256",
          "name": "salary",
          "type": "uint256"
        },
        {
          "internalType": "uint256",
          "name": "startDate",
          "type": "uint256"
        },
        {
          "internalType": "uint256",
          "name": "duration",
          "type": "uint256"
        },
        {
          "internalType": "uint256",
          "name": "noticePeriod",
          "type": "uint256"
        }
      ],
      "stateMutability": "view",
      "type": "function",
      "constant": true
    },
    {
      "inputs": [
        {
          "internalType": "string",
          "name": "_hospitalName",
          "type": "string"
        },
        {
          "internalType": "string",
          "name": "_services",
          "type": "string"
        },
        {
          "internalType": "uint256",
          "name": "_salary",
          "type": "uint256"
        },
        {
          "internalType": "uint256",
          "name": "_startDate",
          "type": "uint256"
        },
        {
          "internalType": "uint256",
          "name": "_duration",
          "type": "uint256"
        },
        {
          "internalType": "uint256",
          "name": "_noticePeriod",
          "type": "uint256"
        }
      ],
      "name": "createContract",
      "outputs": [],
      "stateMutability": "nonpayable",
      "type": "function"
    }
  ],
  "bytecode": "0x608060405234801561001057600080fd5b50610721806100206000396000f3fe608060405234801561001057600080fd5b50600436106100355760003560e01c80624b717d1461003a578063474da79a14610056575b600080fd5b610054600480360381019061004f91906103d1565b61008b565b005b610070600480360381019061006b919061048a565b610155565b604051610082969594939291906104fb565b60405180910390f35b60006040518060c00160405280888152602001878152602001868152602001858152602001848152602001838152509050600081908060018154018082558091505060019003906000526020600020906006020160009091909190915060008201518160000190805190602001906101049291906102b1565b5060208201518160010190805190602001906101219291906102b1565b5060408201518160020155606082015181600301556080820151816004015560a08201518160050155505050505050505050565b6000818154811061016557600080fd5b906000526020600020906006020160009150905080600001805461018890610633565b80601f01602080910402602001604051908101604052809291908181526020018280546101b490610633565b80156102015780601f106101d657610100808354040283529160200191610201565b820191906000526020600020905b8154815290600101906020018083116101e457829003601f168201915b50505050509080600101805461021690610633565b80601f016020809104026020016040519081016040528092919081815260200182805461024290610633565b801561028f5780601f106102645761010080835404028352916020019161028f565b820191906000526020600020905b81548152906001019060200180831161027257829003601f168201915b5050505050908060020154908060030154908060040154908060050154905086565b8280546102bd90610633565b90600052602060002090601f0160209004810192826102df5760008555610326565b82601f106102f857805160ff1916838001178555610326565b82800160010185558215610326579182015b8281111561032557825182559160200191906001019061030a565b5b5090506103339190610337565b5090565b5b80821115610350576000816000905550600101610338565b5090565b60006103676103628461059b565b61056a565b90508281526020810184848401111561037f57600080fd5b61038a8482856105f1565b509392505050565b600082601f8301126103a357600080fd5b81356103b3848260208601610354565b91505092915050565b6000813590506103cb816106d4565b92915050565b60008060008060008060c087890312156103ea57600080fd5b600087013567ffffffffffffffff81111561040457600080fd5b61041089828a01610392565b965050602087013567ffffffffffffffff81111561042d57600080fd5b61043989828a01610392565b955050604061044a89828a016103bc565b945050606061045b89828a016103bc565b935050608061046c89828a016103bc565b92505060a061047d89828a016103bc565b9150509295509295509295565b60006020828403121561049c57600080fd5b60006104aa848285016103bc565b91505092915050565b60006104be826105cb565b6104c881856105d6565b93506104d8818560208601610600565b6104e1816106c3565b840191505092915050565b6104f5816105e7565b82525050565b600060c082019050818103600083015261051581896104b3565b9050818103602083015261052981886104b3565b905061053860408301876104ec565b61054560608301866104ec565b61055260808301856104ec565b61055f60a08301846104ec565b979650505050505050565b6000604051905081810181811067ffffffffffffffff8211171561059157610590610694565b5b8060405250919050565b600067ffffffffffffffff8211156105b6576105b5610694565b5b601f19601f8301169050602081019050919050565b600081519050919050565b600082825260208201905092915050565b6000819050919050565b82818337600083830152505050565b60005b8381101561061e578082015181840152602081019050610603565b8381111561062d576000848401525b50505050565b6000600282049050600182168061064b57607f821691505b6020821081141561065f5761065e610665565b5b50919050565b7f4e487b7100000000000000000000000000000000000000000000000000000000600052602260045260246000fd5b7f4e487b7100000000000000000000000000000000000000000000000000000000600052604160045260246000fd5b6000601f19601f8301169050919050565b6106dd816105e7565b81146106e857600080fd5b5056fea2646970667358221220fb16b27bafacc8d9af7eb2fa0d6c636b403b81c4a35445b10ee9e33e4c37868664736f6c63430008000033",
  "immutableReferences": {},
  "source": "pragma solidity ^0.8.0;\n\ncontract HospitalContract {\n    struct ContractData {\n        string hospitalName;\n        string services;\n        uint256 salary;\n        uint256 startDate;\n        uint256 duration;\n        uint256 noticePeriod;\n    }\n\n    ContractData[] public contracts;\n\n    function createContract(\n        string memory _hospitalName,\n        string memory _services,\n        uint256 _salary,\n        uint256 _startDate,\n        uint256 _duration,\n        uint256 _noticePeriod\n    ) public {\n        ContractData memory newContract = ContractData(\n            _hospitalName,\n            _services,\n            _salary,\n            _startDate,\n            _duration,\n            _noticePeriod\n        );\n        contracts.push(newContract);\n    }\n}",
  "sourcePath": "C:\\Users\\ACER\\Desktop\\hos\\contracts\\Hospital.sol",
  "compiler": {
    "name": "solc",
    "version": "0.8.0+commit.c7dfd78e.Emscripten.clang"
  },
  "schemaVersion": "3.4.16",
  "updatedAt": "2024-02-18T14:08:16.490Z",
  "networkType": "ethereum",
  "devdoc": {
    "kind": "dev",
    "methods": {},
    "version": 1
  },
  "userdoc": {
    "kind": "user",
    "methods": {},
    "version": 1
  }
}